{"abi":[{"type":"constructor","inputs":[{"name":"_entranceFee","type":"uint256","internalType":"uint256"},{"name":"_interval","type":"uint256","internalType":"uint256"},{"name":"_vrfCoordinator","type":"address","internalType":"address"},{"name":"_gasLane","type":"bytes32","internalType":"bytes32"},{"name":"_subscriptionId","type":"uint256","internalType":"uint256"},{"name":"_callbackGasLimit","type":"uint32","internalType":"uint32"}],"stateMutability":"nonpayable"},{"type":"function","name":"acceptOwnership","inputs":[],"outputs":[],"stateMutability":"nonpayable"},{"type":"function","name":"checkUpkeep","inputs":[{"name":"","type":"bytes","internalType":"bytes"}],"outputs":[{"name":"upkeepNeeded","type":"bool","internalType":"bool"},{"name":"","type":"bytes","internalType":"bytes"}],"stateMutability":"view"},{"type":"function","name":"enterRaffle","inputs":[],"outputs":[],"stateMutability":"payable"},{"type":"function","name":"getEntranceFee","inputs":[],"outputs":[{"name":"","type":"uint256","internalType":"uint256"}],"stateMutability":"view"},{"type":"function","name":"getPlayers","inputs":[{"name":"_indexOfPlayer","type":"uint256","internalType":"uint256"}],"outputs":[{"name":"","type":"address","internalType":"address"}],"stateMutability":"view"},{"type":"function","name":"getRaffleState","inputs":[],"outputs":[{"name":"","type":"uint8","internalType":"enum Raffle.RaffleState"}],"stateMutability":"view"},{"type":"function","name":"owner","inputs":[],"outputs":[{"name":"","type":"address","internalType":"address"}],"stateMutability":"view"},{"type":"function","name":"performUpkeep","inputs":[{"name":"","type":"bytes","internalType":"bytes"}],"outputs":[],"stateMutability":"nonpayable"},{"type":"function","name":"rawFulfillRandomWords","inputs":[{"name":"requestId","type":"uint256","internalType":"uint256"},{"name":"randomWords","type":"uint256[]","internalType":"uint256[]"}],"outputs":[],"stateMutability":"nonpayable"},{"type":"function","name":"s_vrfCoordinator","inputs":[],"outputs":[{"name":"","type":"address","internalType":"contract IVRFCoordinatorV2Plus"}],"stateMutability":"view"},{"type":"function","name":"setCoordinator","inputs":[{"name":"_vrfCoordinator","type":"address","internalType":"address"}],"outputs":[],"stateMutability":"nonpayable"},{"type":"function","name":"transferOwnership","inputs":[{"name":"to","type":"address","internalType":"address"}],"outputs":[],"stateMutability":"nonpayable"},{"type":"event","name":"CoordinatorSet","inputs":[{"name":"vrfCoordinator","type":"address","indexed":false,"internalType":"address"}],"anonymous":false},{"type":"event","name":"OwnershipTransferRequested","inputs":[{"name":"from","type":"address","indexed":true,"internalType":"address"},{"name":"to","type":"address","indexed":true,"internalType":"address"}],"anonymous":false},{"type":"event","name":"OwnershipTransferred","inputs":[{"name":"from","type":"address","indexed":true,"internalType":"address"},{"name":"to","type":"address","indexed":true,"internalType":"address"}],"anonymous":false},{"type":"event","name":"RaffleEntered","inputs":[{"name":"_player","type":"address","indexed":true,"internalType":"address"}],"anonymous":false},{"type":"event","name":"WinnerPicked","inputs":[{"name":"_winner","type":"address","indexed":true,"internalType":"address"}],"anonymous":false},{"type":"error","name":"OnlyCoordinatorCanFulfill","inputs":[{"name":"have","type":"address","internalType":"address"},{"name":"want","type":"address","internalType":"address"}]},{"type":"error","name":"OnlyOwnerOrCoordinator","inputs":[{"name":"have","type":"address","internalType":"address"},{"name":"owner","type":"address","internalType":"address"},{"name":"coordinator","type":"address","internalType":"address"}]},{"type":"error","name":"Raffle__NotEnoughEthToEnterRaffle","inputs":[]},{"type":"error","name":"Raffle__RaffleNotOpen","inputs":[]},{"type":"error","name":"Raffle__TransferFailed","inputs":[]},{"type":"error","name":"Raffle__UpkeepNotNeeded","inputs":[{"name":"_balance","type":"uint256","internalType":"uint256"},{"name":"_playersLength","type":"uint256","internalType":"uint256"},{"name":"_raffleState","type":"uint256","internalType":"uint256"}]},{"type":"error","name":"ZeroAddress","inputs":[]}],"bytecode":{"object":"0x6101206040523480156200001257600080fd5b506040516200235a3803806200235a8339818101604052810190620000389190620004a7565b83338060008073ffffffffffffffffffffffffffffffffffffffff168273ffffffffffffffffffffffffffffffffffffffff1603620000ae576040517f08c379a0000000000000000000000000000000000000000000000000000000008152600401620000a590620005a4565b60405180910390fd5b816000806101000a81548173ffffffffffffffffffffffffffffffffffffffff021916908373ffffffffffffffffffffffffffffffffffffffff160217905550600073ffffffffffffffffffffffffffffffffffffffff168173ffffffffffffffffffffffffffffffffffffffff1614620001355762000134816200025760201b60201c565b5b505050600073ffffffffffffffffffffffffffffffffffffffff168173ffffffffffffffffffffffffffffffffffffffff16036200019f576040517fd92e233d00000000000000000000000000000000000000000000000000000000815260040160405180910390fd5b80600260006101000a81548173ffffffffffffffffffffffffffffffffffffffff021916908373ffffffffffffffffffffffffffffffffffffffff160217905550508560a081815250508460c081815250508261010081815250508160e081815250508063ffffffff1660808163ffffffff1681525050426003819055506000600560146101000a81548160ff02191690836001811115620002465762000245620005c6565b5b021790555050505050505062000667565b3373ffffffffffffffffffffffffffffffffffffffff168173ffffffffffffffffffffffffffffffffffffffff1603620002c8576040517f08c379a0000000000000000000000000000000000000000000000000000000008152600401620002bf9062000645565b60405180910390fd5b80600160006101000a81548173ffffffffffffffffffffffffffffffffffffffff021916908373ffffffffffffffffffffffffffffffffffffffff1602179055508073ffffffffffffffffffffffffffffffffffffffff1660008054906101000a900473ffffffffffffffffffffffffffffffffffffffff1673ffffffffffffffffffffffffffffffffffffffff167fed8889f560326eb138920d842192f0eb3dd22b4f139c87a2c57538e05bae127860405160405180910390a350565b600080fd5b6000819050919050565b620003a0816200038b565b8114620003ac57600080fd5b50565b600081519050620003c08162000395565b92915050565b600073ffffffffffffffffffffffffffffffffffffffff82169050919050565b6000620003f382620003c6565b9050919050565b6200040581620003e6565b81146200041157600080fd5b50565b6000815190506200042581620003fa565b92915050565b6000819050919050565b62000440816200042b565b81146200044c57600080fd5b50565b600081519050620004608162000435565b92915050565b600063ffffffff82169050919050565b620004818162000466565b81146200048d57600080fd5b50565b600081519050620004a18162000476565b92915050565b60008060008060008060c08789031215620004c757620004c662000386565b5b6000620004d789828a01620003af565b9650506020620004ea89828a01620003af565b9550506040620004fd89828a0162000414565b94505060606200051089828a016200044f565b93505060806200052389828a01620003af565b92505060a06200053689828a0162000490565b9150509295509295509295565b600082825260208201905092915050565b7f43616e6e6f7420736574206f776e657220746f207a65726f0000000000000000600082015250565b60006200058c60188362000543565b9150620005998262000554565b602082019050919050565b60006020820190508181036000830152620005bf816200057d565b9050919050565b7f4e487b7100000000000000000000000000000000000000000000000000000000600052602160045260246000fd5b7f43616e6e6f74207472616e7366657220746f2073656c66000000000000000000600082015250565b60006200062d60178362000543565b91506200063a82620005f5565b602082019050919050565b6000602082019050818103600083015262000660816200061e565b9050919050565b60805160a05160c05160e05161010051611ca7620006b3600039600061060b015260006106310152600061076b01526000818161029c015261039f015260006106620152611ca76000f3fe6080604052600436106100a75760003560e01c80636e04ff0d116100645780636e04ff0d1461019b57806379ba5097146101d95780638da5cb5b146101f05780638ea981171461021b5780639eccacf614610244578063f2fde38b1461026f576100a7565b806309bc33a7146100ac578063115cbaf5146100d75780631fe543e3146101025780632cfcc5391461012b5780634585e33b14610135578063460e20491461015e575b600080fd5b3480156100b857600080fd5b506100c1610298565b6040516100ce9190611167565b60405180910390f35b3480156100e357600080fd5b506100ec6102c0565b6040516100f991906111f9565b60405180910390f35b34801561010e57600080fd5b50610129600480360381019061012491906112b9565b6102d7565b005b61013361039d565b005b34801561014157600080fd5b5061015c6004803603810190610157919061136f565b61050c565b005b34801561016a57600080fd5b50610185600480360381019061018091906113bc565b61071b565b604051610192919061142a565b60405180910390f35b3480156101a757600080fd5b506101c260048036038101906101bd9190611586565b610763565b6040516101d0929190611669565b60405180910390f35b3480156101e557600080fd5b506101ee610825565b005b3480156101fc57600080fd5b506102056109ba565b604051610212919061142a565b60405180910390f35b34801561022757600080fd5b50610242600480360381019061023d91906116c5565b6109e3565b005b34801561025057600080fd5b50610259610bc4565b6040516102669190611751565b60405180910390f35b34801561027b57600080fd5b50610296600480360381019061029191906116c5565b610bea565b005b60007f0000000000000000000000000000000000000000000000000000000000000000905090565b6000600560149054906101000a900460ff16905090565b600260009054906101000a900473ffffffffffffffffffffffffffffffffffffffff1673ffffffffffffffffffffffffffffffffffffffff163373ffffffffffffffffffffffffffffffffffffffff161461038d5733600260009054906101000a900473ffffffffffffffffffffffffffffffffffffffff166040517f1cf993f400000000000000000000000000000000000000000000000000000000815260040161038492919061176c565b60405180910390fd5b610398838383610bfe565b505050565b7f00000000000000000000000000000000000000000000000000000000000000003410156103f7576040517f7d0d29ca00000000000000000000000000000000000000000000000000000000815260040160405180910390fd5b6000600181111561040b5761040a611182565b5b600560149054906101000a900460ff16600181111561042d5761042c611182565b5b14610464576040517fd24a271400000000000000000000000000000000000000000000000000000000815260040160405180910390fd5b6004339080600181540180825580915050600190039060005260206000200160009091909190916101000a81548173ffffffffffffffffffffffffffffffffffffffff021916908373ffffffffffffffffffffffffffffffffffffffff1602179055503373ffffffffffffffffffffffffffffffffffffffff167f634f3211e3a4e43fee5a21ad9f87ca153b300fc78b1c557a2057dbe9c63bcb4760405160405180910390a2565b600061052660405180602001604052806000815250610763565b509050806105955747600480549050600560149054906101000a900460ff16600181111561055757610556611182565b5b6040517f584327aa00000000000000000000000000000000000000000000000000000000815260040161058c93929190611795565b60405180910390fd5b6001600560146101000a81548160ff021916908360018111156105bb576105ba611182565b5b0217905550600260009054906101000a900473ffffffffffffffffffffffffffffffffffffffff1673ffffffffffffffffffffffffffffffffffffffff16639b1c385e6040518060c001604052807f000000000000000000000000000000000000000000000000000000000000000081526020017f00000000000000000000000000000000000000000000000000000000000000008152602001600361ffff1681526020017f000000000000000000000000000000000000000000000000000000000000000063ffffffff168152602001600163ffffffff1681526020016106b3604051806020016040528060001515815250610e53565b8152506040518263ffffffff1660e01b81526004016106d29190611903565b6020604051808303816000875af11580156106f1573d6000803e3d6000fd5b505050506040513d601f19601f82011682018060405250810190610715919061193a565b50505050565b60006004828154811061073157610730611967565b5b9060005260206000200160009054906101000a900473ffffffffffffffffffffffffffffffffffffffff169050919050565b6000606060007f00000000000000000000000000000000000000000000000000000000000000006003544261079891906119c5565b1015905060008060018111156107b1576107b0611182565b5b600560149054906101000a900460ff1660018111156107d3576107d2611182565b5b149050600080471190506000806004805490501190508380156107f35750825b80156107fc5750815b80156108055750805b955085604051806020016040528060008152509550955050505050915091565b600160009054906101000a900473ffffffffffffffffffffffffffffffffffffffff1673ffffffffffffffffffffffffffffffffffffffff163373ffffffffffffffffffffffffffffffffffffffff16146108b5576040517f08c379a00000000000000000000000000000000000000000000000000000000081526004016108ac90611a56565b60405180910390fd5b60008060009054906101000a900473ffffffffffffffffffffffffffffffffffffffff169050336000806101000a81548173ffffffffffffffffffffffffffffffffffffffff021916908373ffffffffffffffffffffffffffffffffffffffff1602179055506000600160006101000a81548173ffffffffffffffffffffffffffffffffffffffff021916908373ffffffffffffffffffffffffffffffffffffffff1602179055503373ffffffffffffffffffffffffffffffffffffffff168173ffffffffffffffffffffffffffffffffffffffff167f8be0079c531659141344cd1fd0a4f28419497f9722a3daafe3b4186f6b6457e060405160405180910390a350565b60008060009054906101000a900473ffffffffffffffffffffffffffffffffffffffff16905090565b6109eb6109ba565b73ffffffffffffffffffffffffffffffffffffffff163373ffffffffffffffffffffffffffffffffffffffff1614158015610a745750600260009054906101000a900473ffffffffffffffffffffffffffffffffffffffff1673ffffffffffffffffffffffffffffffffffffffff163373ffffffffffffffffffffffffffffffffffffffff1614155b15610ae35733610a826109ba565b600260009054906101000a900473ffffffffffffffffffffffffffffffffffffffff166040517f061db9c1000000000000000000000000000000000000000000000000000000008152600401610ada93929190611a76565b60405180910390fd5b600073ffffffffffffffffffffffffffffffffffffffff168173ffffffffffffffffffffffffffffffffffffffff1603610b49576040517fd92e233d00000000000000000000000000000000000000000000000000000000815260040160405180910390fd5b80600260006101000a81548173ffffffffffffffffffffffffffffffffffffffff021916908373ffffffffffffffffffffffffffffffffffffffff1602179055507fd1a6a14209a385a964d036e404cb5cfb71f4000cdb03c9366292430787261be681604051610bb9919061142a565b60405180910390a150565b600260009054906101000a900473ffffffffffffffffffffffffffffffffffffffff1681565b610bf2610eeb565b610bfb81610f7b565b50565b600060048054905083836000818110610c1a57610c19611967565b5b90506020020135610c2b9190611adc565b9050600060048281548110610c4357610c42611967565b5b9060005260206000200160009054906101000a900473ffffffffffffffffffffffffffffffffffffffff16905080600560006101000a81548173ffffffffffffffffffffffffffffffffffffffff021916908373ffffffffffffffffffffffffffffffffffffffff1602179055506000600560146101000a81548160ff02191690836001811115610cd757610cd6611182565b5b0217905550600067ffffffffffffffff811115610cf757610cf661145b565b5b604051908082528060200260200182016040528015610d255781602001602082028036833780820191505090505b5060049080519060200190610d3b9291906110a7565b5042600381905550600560009054906101000a900473ffffffffffffffffffffffffffffffffffffffff1673ffffffffffffffffffffffffffffffffffffffff167f5b690ec4a06fe979403046eaeea5b3ce38524683c3001f662c8b5a829632f7df60405160405180910390a260008173ffffffffffffffffffffffffffffffffffffffff1647604051610dce90611b3e565b60006040518083038185875af1925050503d8060008114610e0b576040519150601f19603f3d011682016040523d82523d6000602084013e610e10565b606091505b5050905080610e4b576040517fa1d04b3900000000000000000000000000000000000000000000000000000000815260040160405180910390fd5b505050505050565b60607f92fd13387c7fe7befbc38d303d6468778fb9731bc4583f17d92989c6fcfdeaaa82604051602401610e879190611b7e565b604051602081830303815290604052907bffffffffffffffffffffffffffffffffffffffffffffffffffffffff19166020820180517bffffffffffffffffffffffffffffffffffffffffffffffffffffffff83818316178352505050509050919050565b60008054906101000a900473ffffffffffffffffffffffffffffffffffffffff1673ffffffffffffffffffffffffffffffffffffffff163373ffffffffffffffffffffffffffffffffffffffff1614610f79576040517f08c379a0000000000000000000000000000000000000000000000000000000008152600401610f7090611be5565b60405180910390fd5b565b3373ffffffffffffffffffffffffffffffffffffffff168173ffffffffffffffffffffffffffffffffffffffff1603610fe9576040517f08c379a0000000000000000000000000000000000000000000000000000000008152600401610fe090611c51565b60405180910390fd5b80600160006101000a81548173ffffffffffffffffffffffffffffffffffffffff021916908373ffffffffffffffffffffffffffffffffffffffff1602179055508073ffffffffffffffffffffffffffffffffffffffff1660008054906101000a900473ffffffffffffffffffffffffffffffffffffffff1673ffffffffffffffffffffffffffffffffffffffff167fed8889f560326eb138920d842192f0eb3dd22b4f139c87a2c57538e05bae127860405160405180910390a350565b828054828255906000526020600020908101928215611120579160200282015b8281111561111f5782518260006101000a81548173ffffffffffffffffffffffffffffffffffffffff021916908373ffffffffffffffffffffffffffffffffffffffff160217905550916020019190600101906110c7565b5b50905061112d9190611131565b5090565b5b8082111561114a576000816000905550600101611132565b5090565b6000819050919050565b6111618161114e565b82525050565b600060208201905061117c6000830184611158565b92915050565b7f4e487b7100000000000000000000000000000000000000000000000000000000600052602160045260246000fd5b600281106111c2576111c1611182565b5b50565b60008190506111d3826111b1565b919050565b60006111e3826111c5565b9050919050565b6111f3816111d8565b82525050565b600060208201905061120e60008301846111ea565b92915050565b6000604051905090565b600080fd5b600080fd5b6112318161114e565b811461123c57600080fd5b50565b60008135905061124e81611228565b92915050565b600080fd5b600080fd5b600080fd5b60008083601f84011261127957611278611254565b5b8235905067ffffffffffffffff81111561129657611295611259565b5b6020830191508360208202830111156112b2576112b161125e565b5b9250929050565b6000806000604084860312156112d2576112d161121e565b5b60006112e08682870161123f565b935050602084013567ffffffffffffffff81111561130157611300611223565b5b61130d86828701611263565b92509250509250925092565b60008083601f84011261132f5761132e611254565b5b8235905067ffffffffffffffff81111561134c5761134b611259565b5b6020830191508360018202830111156113685761136761125e565b5b9250929050565b600080602083850312156113865761138561121e565b5b600083013567ffffffffffffffff8111156113a4576113a3611223565b5b6113b085828601611319565b92509250509250929050565b6000602082840312156113d2576113d161121e565b5b60006113e08482850161123f565b91505092915050565b600073ffffffffffffffffffffffffffffffffffffffff82169050919050565b6000611414826113e9565b9050919050565b61142481611409565b82525050565b600060208201905061143f600083018461141b565b92915050565b600080fd5b6000601f19601f8301169050919050565b7f4e487b7100000000000000000000000000000000000000000000000000000000600052604160045260246000fd5b6114938261144a565b810181811067ffffffffffffffff821117156114b2576114b161145b565b5b80604052505050565b60006114c5611214565b90506114d1828261148a565b919050565b600067ffffffffffffffff8211156114f1576114f061145b565b5b6114fa8261144a565b9050602081019050919050565b82818337600083830152505050565b6000611529611524846114d6565b6114bb565b90508281526020810184848401111561154557611544611445565b5b611550848285611507565b509392505050565b600082601f83011261156d5761156c611254565b5b813561157d848260208601611516565b91505092915050565b60006020828403121561159c5761159b61121e565b5b600082013567ffffffffffffffff8111156115ba576115b9611223565b5b6115c684828501611558565b91505092915050565b60008115159050919050565b6115e4816115cf565b82525050565b600081519050919050565b600082825260208201905092915050565b60005b83811015611624578082015181840152602081019050611609565b60008484015250505050565b600061163b826115ea565b61164581856115f5565b9350611655818560208601611606565b61165e8161144a565b840191505092915050565b600060408201905061167e60008301856115db565b81810360208301526116908184611630565b90509392505050565b6116a281611409565b81146116ad57600080fd5b50565b6000813590506116bf81611699565b92915050565b6000602082840312156116db576116da61121e565b5b60006116e9848285016116b0565b91505092915050565b6000819050919050565b600061171761171261170d846113e9565b6116f2565b6113e9565b9050919050565b6000611729826116fc565b9050919050565b600061173b8261171e565b9050919050565b61174b81611730565b82525050565b60006020820190506117666000830184611742565b92915050565b6000604082019050611781600083018561141b565b61178e602083018461141b565b9392505050565b60006060820190506117aa6000830186611158565b6117b76020830185611158565b6117c46040830184611158565b949350505050565b6000819050919050565b6117df816117cc565b82525050565b6117ee8161114e565b82525050565b600061ffff82169050919050565b61180b816117f4565b82525050565b600063ffffffff82169050919050565b61182a81611811565b82525050565b600082825260208201905092915050565b600061184c826115ea565b6118568185611830565b9350611866818560208601611606565b61186f8161144a565b840191505092915050565b600060c08301600083015161189260008601826117d6565b5060208301516118a560208601826117e5565b5060408301516118b86040860182611802565b5060608301516118cb6060860182611821565b5060808301516118de6080860182611821565b5060a083015184820360a08601526118f68282611841565b9150508091505092915050565b6000602082019050818103600083015261191d818461187a565b905092915050565b60008151905061193481611228565b92915050565b6000602082840312156119505761194f61121e565b5b600061195e84828501611925565b91505092915050565b7f4e487b7100000000000000000000000000000000000000000000000000000000600052603260045260246000fd5b7f4e487b7100000000000000000000000000000000000000000000000000000000600052601160045260246000fd5b60006119d08261114e565b91506119db8361114e565b92508282039050818111156119f3576119f2611996565b5b92915050565b600082825260208201905092915050565b7f4d7573742062652070726f706f736564206f776e657200000000000000000000600082015250565b6000611a406016836119f9565b9150611a4b82611a0a565b602082019050919050565b60006020820190508181036000830152611a6f81611a33565b9050919050565b6000606082019050611a8b600083018661141b565b611a98602083018561141b565b611aa5604083018461141b565b949350505050565b7f4e487b7100000000000000000000000000000000000000000000000000000000600052601260045260246000fd5b6000611ae78261114e565b9150611af28361114e565b925082611b0257611b01611aad565b5b828206905092915050565b600081905092915050565b50565b6000611b28600083611b0d565b9150611b3382611b18565b600082019050919050565b6000611b4982611b1b565b9150819050919050565b611b5c816115cf565b82525050565b602082016000820151611b786000850182611b53565b50505050565b6000602082019050611b936000830184611b62565b92915050565b7f4f6e6c792063616c6c61626c65206279206f776e657200000000000000000000600082015250565b6000611bcf6016836119f9565b9150611bda82611b99565b602082019050919050565b60006020820190508181036000830152611bfe81611bc2565b9050919050565b7f43616e6e6f74207472616e7366657220746f2073656c66000000000000000000600082015250565b6000611c3b6017836119f9565b9150611c4682611c05565b602082019050919050565b60006020820190508181036000830152611c6a81611c2e565b905091905056fea2646970667358221220359f2d5a8cf36a95f96c130a6e541533ea91ca4af0338e2693411d1595f37c0464736f6c63430008130033","linkReferences":{}},"methodIdentifiers":{"acceptOwnership()":"79ba5097","checkUpkeep(bytes)":"6e04ff0d","enterRaffle()":"2cfcc539","getEntranceFee()":"09bc33a7","getPlayers(uint256)":"460e2049","getRaffleState()":"115cbaf5","owner()":"8da5cb5b","performUpkeep(bytes)":"4585e33b","rawFulfillRandomWords(uint256,uint256[])":"1fe543e3","s_vrfCoordinator()":"9eccacf6","setCoordinator(address)":"8ea98117","transferOwnership(address)":"f2fde38b"},"id":35}