{"abi":[{"type":"constructor","inputs":[{"name":"_entranceFee","type":"uint256","internalType":"uint256"}],"stateMutability":"nonpayable"},{"type":"function","name":"enterRaffle","inputs":[],"outputs":[],"stateMutability":"payable"},{"type":"function","name":"getEntranceFee","inputs":[],"outputs":[{"name":"","type":"uint256","internalType":"uint256"}],"stateMutability":"view"},{"type":"function","name":"pickWinner","inputs":[],"outputs":[],"stateMutability":"nonpayable"}],"bytecode":{"object":"0x60a060405234801561001057600080fd5b506040516101cb3803806101cb8339818101604052810190610032919061007b565b8060808181525050506100a8565b600080fd5b6000819050919050565b61005881610045565b811461006357600080fd5b50565b6000815190506100758161004f565b92915050565b60006020828403121561009157610090610040565b5b600061009f84828501610066565b91505092915050565b6080516101096100c26000396000607b01526101096000f3fe60806040526004361060305760003560e01c806309bc33a71460355780632cfcc53914605b5780635d495aea146063575b600080fd5b348015604057600080fd5b5060476077565b6040516052919060ba565b60405180910390f35b6061609f565b005b348015606e57600080fd5b50607560a1565b005b60007f0000000000000000000000000000000000000000000000000000000000000000905090565b565b565b6000819050919050565b60b48160a3565b82525050565b600060208201905060cd600083018460ad565b9291505056fea2646970667358221220caba5a47a4ccdbb12fe029eef35db1b016440e5c02dc34d062e99f1332088dc264736f6c63430008130033","linkReferences":{}},"methodIdentifiers":{"enterRaffle()":"2cfcc539","getEntranceFee()":"09bc33a7","pickWinner()":"5d495aea"},"id":0}