{"abi":[{"type":"constructor","inputs":[{"name":"_entranceFee","type":"uint256","internalType":"uint256"},{"name":"_interval","type":"uint256","internalType":"uint256"},{"name":"_vrfCoordinator","type":"address","internalType":"address"},{"name":"_gasLane","type":"bytes32","internalType":"bytes32"},{"name":"_subscriptionId","type":"uint256","internalType":"uint256"},{"name":"_callbackGasLimit","type":"uint32","internalType":"uint32"}],"stateMutability":"nonpayable"},{"type":"function","name":"acceptOwnership","inputs":[],"outputs":[],"stateMutability":"nonpayable"},{"type":"function","name":"checkUpkeep","inputs":[{"name":"","type":"bytes","internalType":"bytes"}],"outputs":[{"name":"upkeepNeeded","type":"bool","internalType":"bool"},{"name":"","type":"bytes","internalType":"bytes"}],"stateMutability":"view"},{"type":"function","name":"enterRaffle","inputs":[],"outputs":[],"stateMutability":"payable"},{"type":"function","name":"getEntranceFee","inputs":[],"outputs":[{"name":"","type":"uint256","internalType":"uint256"}],"stateMutability":"view"},{"type":"function","name":"getRaffleState","inputs":[],"outputs":[{"name":"","type":"uint8","internalType":"enum Raffle.RaffleState"}],"stateMutability":"view"},{"type":"function","name":"owner","inputs":[],"outputs":[{"name":"","type":"address","internalType":"address"}],"stateMutability":"view"},{"type":"function","name":"performUpkeep","inputs":[{"name":"","type":"bytes","internalType":"bytes"}],"outputs":[],"stateMutability":"nonpayable"},{"type":"function","name":"rawFulfillRandomWords","inputs":[{"name":"requestId","type":"uint256","internalType":"uint256"},{"name":"randomWords","type":"uint256[]","internalType":"uint256[]"}],"outputs":[],"stateMutability":"nonpayable"},{"type":"function","name":"s_vrfCoordinator","inputs":[],"outputs":[{"name":"","type":"address","internalType":"contract IVRFCoordinatorV2Plus"}],"stateMutability":"view"},{"type":"function","name":"setCoordinator","inputs":[{"name":"_vrfCoordinator","type":"address","internalType":"address"}],"outputs":[],"stateMutability":"nonpayable"},{"type":"function","name":"transferOwnership","inputs":[{"name":"to","type":"address","internalType":"address"}],"outputs":[],"stateMutability":"nonpayable"},{"type":"event","name":"CoordinatorSet","inputs":[{"name":"vrfCoordinator","type":"address","indexed":false,"internalType":"address"}],"anonymous":false},{"type":"event","name":"OwnershipTransferRequested","inputs":[{"name":"from","type":"address","indexed":true,"internalType":"address"},{"name":"to","type":"address","indexed":true,"internalType":"address"}],"anonymous":false},{"type":"event","name":"OwnershipTransferred","inputs":[{"name":"from","type":"address","indexed":true,"internalType":"address"},{"name":"to","type":"address","indexed":true,"internalType":"address"}],"anonymous":false},{"type":"event","name":"RaffleEntered","inputs":[{"name":"_player","type":"address","indexed":true,"internalType":"address"}],"anonymous":false},{"type":"event","name":"WinnerPicked","inputs":[{"name":"_winner","type":"address","indexed":true,"internalType":"address"}],"anonymous":false},{"type":"error","name":"OnlyCoordinatorCanFulfill","inputs":[{"name":"have","type":"address","internalType":"address"},{"name":"want","type":"address","internalType":"address"}]},{"type":"error","name":"OnlyOwnerOrCoordinator","inputs":[{"name":"have","type":"address","internalType":"address"},{"name":"owner","type":"address","internalType":"address"},{"name":"coordinator","type":"address","internalType":"address"}]},{"type":"error","name":"Raffle__NotEnoughEthToEnterRaffle","inputs":[]},{"type":"error","name":"Raffle__RaffleNotOpen","inputs":[]},{"type":"error","name":"Raffle__TransferFailed","inputs":[]},{"type":"error","name":"Raffle__UpkeepNotNeeded","inputs":[{"name":"_balance","type":"uint256","internalType":"uint256"},{"name":"_playersLength","type":"uint256","internalType":"uint256"},{"name":"_raffleState","type":"uint256","internalType":"uint256"}]},{"type":"error","name":"ZeroAddress","inputs":[]}],"bytecode":{"object":"0x6101206040523480156200001257600080fd5b506040516200229d3803806200229d8339818101604052810190620000389190620004a7565b83338060008073ffffffffffffffffffffffffffffffffffffffff168273ffffffffffffffffffffffffffffffffffffffff1603620000ae576040517f08c379a0000000000000000000000000000000000000000000000000000000008152600401620000a590620005a4565b60405180910390fd5b816000806101000a81548173ffffffffffffffffffffffffffffffffffffffff021916908373ffffffffffffffffffffffffffffffffffffffff160217905550600073ffffffffffffffffffffffffffffffffffffffff168173ffffffffffffffffffffffffffffffffffffffff1614620001355762000134816200025760201b60201c565b5b505050600073ffffffffffffffffffffffffffffffffffffffff168173ffffffffffffffffffffffffffffffffffffffff16036200019f576040517fd92e233d00000000000000000000000000000000000000000000000000000000815260040160405180910390fd5b80600260006101000a81548173ffffffffffffffffffffffffffffffffffffffff021916908373ffffffffffffffffffffffffffffffffffffffff160217905550508560a081815250508460c081815250508261010081815250508160e081815250508063ffffffff1660808163ffffffff1681525050426003819055506000600560146101000a81548160ff02191690836001811115620002465762000245620005c6565b5b021790555050505050505062000667565b3373ffffffffffffffffffffffffffffffffffffffff168173ffffffffffffffffffffffffffffffffffffffff1603620002c8576040517f08c379a0000000000000000000000000000000000000000000000000000000008152600401620002bf9062000645565b60405180910390fd5b80600160006101000a81548173ffffffffffffffffffffffffffffffffffffffff021916908373ffffffffffffffffffffffffffffffffffffffff1602179055508073ffffffffffffffffffffffffffffffffffffffff1660008054906101000a900473ffffffffffffffffffffffffffffffffffffffff1673ffffffffffffffffffffffffffffffffffffffff167fed8889f560326eb138920d842192f0eb3dd22b4f139c87a2c57538e05bae127860405160405180910390a350565b600080fd5b6000819050919050565b620003a0816200038b565b8114620003ac57600080fd5b50565b600081519050620003c08162000395565b92915050565b600073ffffffffffffffffffffffffffffffffffffffff82169050919050565b6000620003f382620003c6565b9050919050565b6200040581620003e6565b81146200041157600080fd5b50565b6000815190506200042581620003fa565b92915050565b6000819050919050565b62000440816200042b565b81146200044c57600080fd5b50565b600081519050620004608162000435565b92915050565b600063ffffffff82169050919050565b620004818162000466565b81146200048d57600080fd5b50565b600081519050620004a18162000476565b92915050565b60008060008060008060c08789031215620004c757620004c662000386565b5b6000620004d789828a01620003af565b9650506020620004ea89828a01620003af565b9550506040620004fd89828a0162000414565b94505060606200051089828a016200044f565b93505060806200052389828a01620003af565b92505060a06200053689828a0162000490565b9150509295509295509295565b600082825260208201905092915050565b7f43616e6e6f7420736574206f776e657220746f207a65726f0000000000000000600082015250565b60006200058c60188362000543565b9150620005998262000554565b602082019050919050565b60006020820190508181036000830152620005bf816200057d565b9050919050565b7f4e487b7100000000000000000000000000000000000000000000000000000000600052602160045260246000fd5b7f43616e6e6f74207472616e7366657220746f2073656c66000000000000000000600082015250565b60006200062d60178362000543565b91506200063a82620005f5565b602082019050919050565b6000602082019050818103600083015262000660816200061e565b9050919050565b60805160a05160c05160e05161010051611bea620006b360003960006105c3015260006105e9015260006106db01526000818161025401526103570152600061061a0152611bea6000f3fe60806040526004361061009c5760003560e01c80636e04ff0d116100645780636e04ff0d1461015357806379ba5097146101915780638da5cb5b146101a85780638ea98117146101d35780639eccacf6146101fc578063f2fde38b146102275761009c565b806309bc33a7146100a1578063115cbaf5146100cc5780631fe543e3146100f75780632cfcc539146101205780634585e33b1461012a575b600080fd5b3480156100ad57600080fd5b506100b6610250565b6040516100c391906110d7565b60405180910390f35b3480156100d857600080fd5b506100e1610278565b6040516100ee9190611169565b60405180910390f35b34801561010357600080fd5b5061011e60048036038101906101199190611229565b61028f565b005b610128610355565b005b34801561013657600080fd5b50610151600480360381019061014c91906112df565b6104c4565b005b34801561015f57600080fd5b5061017a6004803603810190610175919061146d565b6106d3565b604051610188929190611550565b60405180910390f35b34801561019d57600080fd5b506101a6610795565b005b3480156101b457600080fd5b506101bd61092a565b6040516101ca91906115c1565b60405180910390f35b3480156101df57600080fd5b506101fa60048036038101906101f59190611608565b610953565b005b34801561020857600080fd5b50610211610b34565b60405161021e9190611694565b60405180910390f35b34801561023357600080fd5b5061024e60048036038101906102499190611608565b610b5a565b005b60007f0000000000000000000000000000000000000000000000000000000000000000905090565b6000600560149054906101000a900460ff16905090565b600260009054906101000a900473ffffffffffffffffffffffffffffffffffffffff1673ffffffffffffffffffffffffffffffffffffffff163373ffffffffffffffffffffffffffffffffffffffff16146103455733600260009054906101000a900473ffffffffffffffffffffffffffffffffffffffff166040517f1cf993f400000000000000000000000000000000000000000000000000000000815260040161033c9291906116af565b60405180910390fd5b610350838383610b6e565b505050565b7f00000000000000000000000000000000000000000000000000000000000000003410156103af576040517f7d0d29ca00000000000000000000000000000000000000000000000000000000815260040160405180910390fd5b600060018111156103c3576103c26110f2565b5b600560149054906101000a900460ff1660018111156103e5576103e46110f2565b5b1461041c576040517fd24a271400000000000000000000000000000000000000000000000000000000815260040160405180910390fd5b6004339080600181540180825580915050600190039060005260206000200160009091909190916101000a81548173ffffffffffffffffffffffffffffffffffffffff021916908373ffffffffffffffffffffffffffffffffffffffff1602179055503373ffffffffffffffffffffffffffffffffffffffff167f634f3211e3a4e43fee5a21ad9f87ca153b300fc78b1c557a2057dbe9c63bcb4760405160405180910390a2565b60006104de604051806020016040528060008152506106d3565b5090508061054d5747600480549050600560149054906101000a900460ff16600181111561050f5761050e6110f2565b5b6040517f584327aa000000000000000000000000000000000000000000000000000000008152600401610544939291906116d8565b60405180910390fd5b6001600560146101000a81548160ff02191690836001811115610573576105726110f2565b5b0217905550600260009054906101000a900473ffffffffffffffffffffffffffffffffffffffff1673ffffffffffffffffffffffffffffffffffffffff16639b1c385e6040518060c001604052807f000000000000000000000000000000000000000000000000000000000000000081526020017f00000000000000000000000000000000000000000000000000000000000000008152602001600361ffff1681526020017f000000000000000000000000000000000000000000000000000000000000000063ffffffff168152602001600163ffffffff16815260200161066b604051806020016040528060001515815250610dc3565b8152506040518263ffffffff1660e01b815260040161068a9190611846565b6020604051808303816000875af11580156106a9573d6000803e3d6000fd5b505050506040513d601f19601f820116820180604052508101906106cd919061187d565b50505050565b6000606060007f00000000000000000000000000000000000000000000000000000000000000006003544261070891906118d9565b101590506000806001811115610721576107206110f2565b5b600560149054906101000a900460ff166001811115610743576107426110f2565b5b149050600080471190506000806004805490501190508380156107635750825b801561076c5750815b80156107755750805b955085604051806020016040528060008152509550955050505050915091565b600160009054906101000a900473ffffffffffffffffffffffffffffffffffffffff1673ffffffffffffffffffffffffffffffffffffffff163373ffffffffffffffffffffffffffffffffffffffff1614610825576040517f08c379a000000000000000000000000000000000000000000000000000000000815260040161081c9061196a565b60405180910390fd5b60008060009054906101000a900473ffffffffffffffffffffffffffffffffffffffff169050336000806101000a81548173ffffffffffffffffffffffffffffffffffffffff021916908373ffffffffffffffffffffffffffffffffffffffff1602179055506000600160006101000a81548173ffffffffffffffffffffffffffffffffffffffff021916908373ffffffffffffffffffffffffffffffffffffffff1602179055503373ffffffffffffffffffffffffffffffffffffffff168173ffffffffffffffffffffffffffffffffffffffff167f8be0079c531659141344cd1fd0a4f28419497f9722a3daafe3b4186f6b6457e060405160405180910390a350565b60008060009054906101000a900473ffffffffffffffffffffffffffffffffffffffff16905090565b61095b61092a565b73ffffffffffffffffffffffffffffffffffffffff163373ffffffffffffffffffffffffffffffffffffffff16141580156109e45750600260009054906101000a900473ffffffffffffffffffffffffffffffffffffffff1673ffffffffffffffffffffffffffffffffffffffff163373ffffffffffffffffffffffffffffffffffffffff1614155b15610a5357336109f261092a565b600260009054906101000a900473ffffffffffffffffffffffffffffffffffffffff166040517f061db9c1000000000000000000000000000000000000000000000000000000008152600401610a4a9392919061198a565b60405180910390fd5b600073ffffffffffffffffffffffffffffffffffffffff168173ffffffffffffffffffffffffffffffffffffffff1603610ab9576040517fd92e233d00000000000000000000000000000000000000000000000000000000815260040160405180910390fd5b80600260006101000a81548173ffffffffffffffffffffffffffffffffffffffff021916908373ffffffffffffffffffffffffffffffffffffffff1602179055507fd1a6a14209a385a964d036e404cb5cfb71f4000cdb03c9366292430787261be681604051610b2991906115c1565b60405180910390a150565b600260009054906101000a900473ffffffffffffffffffffffffffffffffffffffff1681565b610b62610e5b565b610b6b81610eeb565b50565b600060048054905083836000818110610b8a57610b896119c1565b5b90506020020135610b9b9190611a1f565b9050600060048281548110610bb357610bb26119c1565b5b9060005260206000200160009054906101000a900473ffffffffffffffffffffffffffffffffffffffff16905080600560006101000a81548173ffffffffffffffffffffffffffffffffffffffff021916908373ffffffffffffffffffffffffffffffffffffffff1602179055506000600560146101000a81548160ff02191690836001811115610c4757610c466110f2565b5b0217905550600067ffffffffffffffff811115610c6757610c66611342565b5b604051908082528060200260200182016040528015610c955781602001602082028036833780820191505090505b5060049080519060200190610cab929190611017565b5042600381905550600560009054906101000a900473ffffffffffffffffffffffffffffffffffffffff1673ffffffffffffffffffffffffffffffffffffffff167f5b690ec4a06fe979403046eaeea5b3ce38524683c3001f662c8b5a829632f7df60405160405180910390a260008173ffffffffffffffffffffffffffffffffffffffff1647604051610d3e90611a81565b60006040518083038185875af1925050503d8060008114610d7b576040519150601f19603f3d011682016040523d82523d6000602084013e610d80565b606091505b5050905080610dbb576040517fa1d04b3900000000000000000000000000000000000000000000000000000000815260040160405180910390fd5b505050505050565b60607f92fd13387c7fe7befbc38d303d6468778fb9731bc4583f17d92989c6fcfdeaaa82604051602401610df79190611ac1565b604051602081830303815290604052907bffffffffffffffffffffffffffffffffffffffffffffffffffffffff19166020820180517bffffffffffffffffffffffffffffffffffffffffffffffffffffffff83818316178352505050509050919050565b60008054906101000a900473ffffffffffffffffffffffffffffffffffffffff1673ffffffffffffffffffffffffffffffffffffffff163373ffffffffffffffffffffffffffffffffffffffff1614610ee9576040517f08c379a0000000000000000000000000000000000000000000000000000000008152600401610ee090611b28565b60405180910390fd5b565b3373ffffffffffffffffffffffffffffffffffffffff168173ffffffffffffffffffffffffffffffffffffffff1603610f59576040517f08c379a0000000000000000000000000000000000000000000000000000000008152600401610f5090611b94565b60405180910390fd5b80600160006101000a81548173ffffffffffffffffffffffffffffffffffffffff021916908373ffffffffffffffffffffffffffffffffffffffff1602179055508073ffffffffffffffffffffffffffffffffffffffff1660008054906101000a900473ffffffffffffffffffffffffffffffffffffffff1673ffffffffffffffffffffffffffffffffffffffff167fed8889f560326eb138920d842192f0eb3dd22b4f139c87a2c57538e05bae127860405160405180910390a350565b828054828255906000526020600020908101928215611090579160200282015b8281111561108f5782518260006101000a81548173ffffffffffffffffffffffffffffffffffffffff021916908373ffffffffffffffffffffffffffffffffffffffff16021790555091602001919060010190611037565b5b50905061109d91906110a1565b5090565b5b808211156110ba5760008160009055506001016110a2565b5090565b6000819050919050565b6110d1816110be565b82525050565b60006020820190506110ec60008301846110c8565b92915050565b7f4e487b7100000000000000000000000000000000000000000000000000000000600052602160045260246000fd5b60028110611132576111316110f2565b5b50565b600081905061114382611121565b919050565b600061115382611135565b9050919050565b61116381611148565b82525050565b600060208201905061117e600083018461115a565b92915050565b6000604051905090565b600080fd5b600080fd5b6111a1816110be565b81146111ac57600080fd5b50565b6000813590506111be81611198565b92915050565b600080fd5b600080fd5b600080fd5b60008083601f8401126111e9576111e86111c4565b5b8235905067ffffffffffffffff811115611206576112056111c9565b5b602083019150836020820283011115611222576112216111ce565b5b9250929050565b6000806000604084860312156112425761124161118e565b5b6000611250868287016111af565b935050602084013567ffffffffffffffff81111561127157611270611193565b5b61127d868287016111d3565b92509250509250925092565b60008083601f84011261129f5761129e6111c4565b5b8235905067ffffffffffffffff8111156112bc576112bb6111c9565b5b6020830191508360018202830111156112d8576112d76111ce565b5b9250929050565b600080602083850312156112f6576112f561118e565b5b600083013567ffffffffffffffff81111561131457611313611193565b5b61132085828601611289565b92509250509250929050565b600080fd5b6000601f19601f8301169050919050565b7f4e487b7100000000000000000000000000000000000000000000000000000000600052604160045260246000fd5b61137a82611331565b810181811067ffffffffffffffff8211171561139957611398611342565b5b80604052505050565b60006113ac611184565b90506113b88282611371565b919050565b600067ffffffffffffffff8211156113d8576113d7611342565b5b6113e182611331565b9050602081019050919050565b82818337600083830152505050565b600061141061140b846113bd565b6113a2565b90508281526020810184848401111561142c5761142b61132c565b5b6114378482856113ee565b509392505050565b600082601f830112611454576114536111c4565b5b81356114648482602086016113fd565b91505092915050565b6000602082840312156114835761148261118e565b5b600082013567ffffffffffffffff8111156114a1576114a0611193565b5b6114ad8482850161143f565b91505092915050565b60008115159050919050565b6114cb816114b6565b82525050565b600081519050919050565b600082825260208201905092915050565b60005b8381101561150b5780820151818401526020810190506114f0565b60008484015250505050565b6000611522826114d1565b61152c81856114dc565b935061153c8185602086016114ed565b61154581611331565b840191505092915050565b600060408201905061156560008301856114c2565b81810360208301526115778184611517565b90509392505050565b600073ffffffffffffffffffffffffffffffffffffffff82169050919050565b60006115ab82611580565b9050919050565b6115bb816115a0565b82525050565b60006020820190506115d660008301846115b2565b92915050565b6115e5816115a0565b81146115f057600080fd5b50565b600081359050611602816115dc565b92915050565b60006020828403121561161e5761161d61118e565b5b600061162c848285016115f3565b91505092915050565b6000819050919050565b600061165a61165561165084611580565b611635565b611580565b9050919050565b600061166c8261163f565b9050919050565b600061167e82611661565b9050919050565b61168e81611673565b82525050565b60006020820190506116a96000830184611685565b92915050565b60006040820190506116c460008301856115b2565b6116d160208301846115b2565b9392505050565b60006060820190506116ed60008301866110c8565b6116fa60208301856110c8565b61170760408301846110c8565b949350505050565b6000819050919050565b6117228161170f565b82525050565b611731816110be565b82525050565b600061ffff82169050919050565b61174e81611737565b82525050565b600063ffffffff82169050919050565b61176d81611754565b82525050565b600082825260208201905092915050565b600061178f826114d1565b6117998185611773565b93506117a98185602086016114ed565b6117b281611331565b840191505092915050565b600060c0830160008301516117d56000860182611719565b5060208301516117e86020860182611728565b5060408301516117fb6040860182611745565b50606083015161180e6060860182611764565b5060808301516118216080860182611764565b5060a083015184820360a08601526118398282611784565b9150508091505092915050565b6000602082019050818103600083015261186081846117bd565b905092915050565b60008151905061187781611198565b92915050565b6000602082840312156118935761189261118e565b5b60006118a184828501611868565b91505092915050565b7f4e487b7100000000000000000000000000000000000000000000000000000000600052601160045260246000fd5b60006118e4826110be565b91506118ef836110be565b9250828203905081811115611907576119066118aa565b5b92915050565b600082825260208201905092915050565b7f4d7573742062652070726f706f736564206f776e657200000000000000000000600082015250565b600061195460168361190d565b915061195f8261191e565b602082019050919050565b6000602082019050818103600083015261198381611947565b9050919050565b600060608201905061199f60008301866115b2565b6119ac60208301856115b2565b6119b960408301846115b2565b949350505050565b7f4e487b7100000000000000000000000000000000000000000000000000000000600052603260045260246000fd5b7f4e487b7100000000000000000000000000000000000000000000000000000000600052601260045260246000fd5b6000611a2a826110be565b9150611a35836110be565b925082611a4557611a446119f0565b5b828206905092915050565b600081905092915050565b50565b6000611a6b600083611a50565b9150611a7682611a5b565b600082019050919050565b6000611a8c82611a5e565b9150819050919050565b611a9f816114b6565b82525050565b602082016000820151611abb6000850182611a96565b50505050565b6000602082019050611ad66000830184611aa5565b92915050565b7f4f6e6c792063616c6c61626c65206279206f776e657200000000000000000000600082015250565b6000611b1260168361190d565b9150611b1d82611adc565b602082019050919050565b60006020820190508181036000830152611b4181611b05565b9050919050565b7f43616e6e6f74207472616e7366657220746f2073656c66000000000000000000600082015250565b6000611b7e60178361190d565b9150611b8982611b48565b602082019050919050565b60006020820190508181036000830152611bad81611b71565b905091905056fea26469706673582212208690d8fbf3ea22260e89b9bc4cac7c76f1676644b6e31e221908244082a5529764736f6c63430008130033","linkReferences":{}},"methodIdentifiers":{"acceptOwnership()":"79ba5097","checkUpkeep(bytes)":"6e04ff0d","enterRaffle()":"2cfcc539","getEntranceFee()":"09bc33a7","getRaffleState()":"115cbaf5","owner()":"8da5cb5b","performUpkeep(bytes)":"4585e33b","rawFulfillRandomWords(uint256,uint256[])":"1fe543e3","s_vrfCoordinator()":"9eccacf6","setCoordinator(address)":"8ea98117","transferOwnership(address)":"f2fde38b"},"id":35}