{"abi":[{"type":"constructor","inputs":[{"name":"_entranceFee","type":"uint256","internalType":"uint256"},{"name":"_interval","type":"uint256","internalType":"uint256"},{"name":"_vrfCoordinator","type":"address","internalType":"address"},{"name":"_gasLane","type":"bytes32","internalType":"bytes32"},{"name":"_subscriptionId","type":"uint256","internalType":"uint256"},{"name":"_callbackGasLimit","type":"uint32","internalType":"uint32"}],"stateMutability":"nonpayable"},{"type":"function","name":"acceptOwnership","inputs":[],"outputs":[],"stateMutability":"nonpayable"},{"type":"function","name":"checkUpkeep","inputs":[{"name":"","type":"bytes","internalType":"bytes"}],"outputs":[{"name":"upkeepNeeded","type":"bool","internalType":"bool"},{"name":"","type":"bytes","internalType":"bytes"}],"stateMutability":"view"},{"type":"function","name":"enterRaffle","inputs":[],"outputs":[],"stateMutability":"payable"},{"type":"function","name":"getEntranceFee","inputs":[],"outputs":[{"name":"","type":"uint256","internalType":"uint256"}],"stateMutability":"view"},{"type":"function","name":"owner","inputs":[],"outputs":[{"name":"","type":"address","internalType":"address"}],"stateMutability":"view"},{"type":"function","name":"performUpkeep","inputs":[{"name":"","type":"bytes","internalType":"bytes"}],"outputs":[],"stateMutability":"nonpayable"},{"type":"function","name":"rawFulfillRandomWords","inputs":[{"name":"requestId","type":"uint256","internalType":"uint256"},{"name":"randomWords","type":"uint256[]","internalType":"uint256[]"}],"outputs":[],"stateMutability":"nonpayable"},{"type":"function","name":"s_vrfCoordinator","inputs":[],"outputs":[{"name":"","type":"address","internalType":"contract IVRFCoordinatorV2Plus"}],"stateMutability":"view"},{"type":"function","name":"setCoordinator","inputs":[{"name":"_vrfCoordinator","type":"address","internalType":"address"}],"outputs":[],"stateMutability":"nonpayable"},{"type":"function","name":"transferOwnership","inputs":[{"name":"to","type":"address","internalType":"address"}],"outputs":[],"stateMutability":"nonpayable"},{"type":"event","name":"CoordinatorSet","inputs":[{"name":"vrfCoordinator","type":"address","indexed":false,"internalType":"address"}],"anonymous":false},{"type":"event","name":"OwnershipTransferRequested","inputs":[{"name":"from","type":"address","indexed":true,"internalType":"address"},{"name":"to","type":"address","indexed":true,"internalType":"address"}],"anonymous":false},{"type":"event","name":"OwnershipTransferred","inputs":[{"name":"from","type":"address","indexed":true,"internalType":"address"},{"name":"to","type":"address","indexed":true,"internalType":"address"}],"anonymous":false},{"type":"event","name":"RaffleEntered","inputs":[{"name":"_player","type":"address","indexed":true,"internalType":"address"}],"anonymous":false},{"type":"event","name":"WinnerPicked","inputs":[{"name":"_winner","type":"address","indexed":true,"internalType":"address"}],"anonymous":false},{"type":"error","name":"OnlyCoordinatorCanFulfill","inputs":[{"name":"have","type":"address","internalType":"address"},{"name":"want","type":"address","internalType":"address"}]},{"type":"error","name":"OnlyOwnerOrCoordinator","inputs":[{"name":"have","type":"address","internalType":"address"},{"name":"owner","type":"address","internalType":"address"},{"name":"coordinator","type":"address","internalType":"address"}]},{"type":"error","name":"Raffle__NotEnoughEthToEnterRaffle","inputs":[]},{"type":"error","name":"Raffle__RaffleNotOpen","inputs":[]},{"type":"error","name":"Raffle__TransferFailed","inputs":[]},{"type":"error","name":"Raffle__UpkeepNotNeeded","inputs":[{"name":"_balance","type":"uint256","internalType":"uint256"},{"name":"_playersLength","type":"uint256","internalType":"uint256"},{"name":"_raffleState","type":"uint256","internalType":"uint256"}]},{"type":"error","name":"ZeroAddress","inputs":[]}],"bytecode":{"object":"0x6101206040523480156200001257600080fd5b50604051620021ed380380620021ed8339818101604052810190620000389190620004a7565b83338060008073ffffffffffffffffffffffffffffffffffffffff168273ffffffffffffffffffffffffffffffffffffffff1603620000ae576040517f08c379a0000000000000000000000000000000000000000000000000000000008152600401620000a590620005a4565b60405180910390fd5b816000806101000a81548173ffffffffffffffffffffffffffffffffffffffff021916908373ffffffffffffffffffffffffffffffffffffffff160217905550600073ffffffffffffffffffffffffffffffffffffffff168173ffffffffffffffffffffffffffffffffffffffff1614620001355762000134816200025760201b60201c565b5b505050600073ffffffffffffffffffffffffffffffffffffffff168173ffffffffffffffffffffffffffffffffffffffff16036200019f576040517fd92e233d00000000000000000000000000000000000000000000000000000000815260040160405180910390fd5b80600260006101000a81548173ffffffffffffffffffffffffffffffffffffffff021916908373ffffffffffffffffffffffffffffffffffffffff160217905550508560a081815250508460c081815250508261010081815250508160e081815250508063ffffffff1660808163ffffffff1681525050426003819055506000600560146101000a81548160ff02191690836001811115620002465762000245620005c6565b5b021790555050505050505062000667565b3373ffffffffffffffffffffffffffffffffffffffff168173ffffffffffffffffffffffffffffffffffffffff1603620002c8576040517f08c379a0000000000000000000000000000000000000000000000000000000008152600401620002bf9062000645565b60405180910390fd5b80600160006101000a81548173ffffffffffffffffffffffffffffffffffffffff021916908373ffffffffffffffffffffffffffffffffffffffff1602179055508073ffffffffffffffffffffffffffffffffffffffff1660008054906101000a900473ffffffffffffffffffffffffffffffffffffffff1673ffffffffffffffffffffffffffffffffffffffff167fed8889f560326eb138920d842192f0eb3dd22b4f139c87a2c57538e05bae127860405160405180910390a350565b600080fd5b6000819050919050565b620003a0816200038b565b8114620003ac57600080fd5b50565b600081519050620003c08162000395565b92915050565b600073ffffffffffffffffffffffffffffffffffffffff82169050919050565b6000620003f382620003c6565b9050919050565b6200040581620003e6565b81146200041157600080fd5b50565b6000815190506200042581620003fa565b92915050565b6000819050919050565b62000440816200042b565b81146200044c57600080fd5b50565b600081519050620004608162000435565b92915050565b600063ffffffff82169050919050565b620004818162000466565b81146200048d57600080fd5b50565b600081519050620004a18162000476565b92915050565b60008060008060008060c08789031215620004c757620004c662000386565b5b6000620004d789828a01620003af565b9650506020620004ea89828a01620003af565b9550506040620004fd89828a0162000414565b94505060606200051089828a016200044f565b93505060806200052389828a01620003af565b92505060a06200053689828a0162000490565b9150509295509295509295565b600082825260208201905092915050565b7f43616e6e6f7420736574206f776e657220746f207a65726f0000000000000000600082015250565b60006200058c60188362000543565b9150620005998262000554565b602082019050919050565b60006020820190508181036000830152620005bf816200057d565b9050919050565b7f4e487b7100000000000000000000000000000000000000000000000000000000600052602160045260246000fd5b7f43616e6e6f74207472616e7366657220746f2073656c66000000000000000000600082015250565b60006200062d60178362000543565b91506200063a82620005f5565b602082019050919050565b6000602082019050818103600083015262000660816200061e565b9050919050565b60805160a05160c05160e05161010051611b3a620006b360003960006105760152600061059c0152600061068e01526000818161021e015261030a015260006105cd0152611b3a6000f3fe6080604052600436106100915760003560e01c806379ba50971161005957806379ba50971461015b5780638da5cb5b146101725780638ea981171461019d5780639eccacf6146101c6578063f2fde38b146101f157610091565b806309bc33a7146100965780631fe543e3146100c15780632cfcc539146100ea5780634585e33b146100f45780636e04ff0d1461011d575b600080fd5b3480156100a257600080fd5b506100ab61021a565b6040516100b8919061108a565b60405180910390f35b3480156100cd57600080fd5b506100e860048036038101906100e3919061114a565b610242565b005b6100f2610308565b005b34801561010057600080fd5b5061011b60048036038101906101169190611200565b610477565b005b34801561012957600080fd5b50610144600480360381019061013f919061138e565b610686565b604051610152929190611471565b60405180910390f35b34801561016757600080fd5b50610170610748565b005b34801561017e57600080fd5b506101876108dd565b60405161019491906114e2565b60405180910390f35b3480156101a957600080fd5b506101c460048036038101906101bf9190611529565b610906565b005b3480156101d257600080fd5b506101db610ae7565b6040516101e891906115b5565b60405180910390f35b3480156101fd57600080fd5b5061021860048036038101906102139190611529565b610b0d565b005b60007f0000000000000000000000000000000000000000000000000000000000000000905090565b600260009054906101000a900473ffffffffffffffffffffffffffffffffffffffff1673ffffffffffffffffffffffffffffffffffffffff163373ffffffffffffffffffffffffffffffffffffffff16146102f85733600260009054906101000a900473ffffffffffffffffffffffffffffffffffffffff166040517f1cf993f40000000000000000000000000000000000000000000000000000000081526004016102ef9291906115d0565b60405180910390fd5b610303838383610b21565b505050565b7f0000000000000000000000000000000000000000000000000000000000000000341015610362576040517f7d0d29ca00000000000000000000000000000000000000000000000000000000815260040160405180910390fd5b60006001811115610376576103756115f9565b5b600560149054906101000a900460ff166001811115610398576103976115f9565b5b146103cf576040517fd24a271400000000000000000000000000000000000000000000000000000000815260040160405180910390fd5b6004339080600181540180825580915050600190039060005260206000200160009091909190916101000a81548173ffffffffffffffffffffffffffffffffffffffff021916908373ffffffffffffffffffffffffffffffffffffffff1602179055503373ffffffffffffffffffffffffffffffffffffffff167f634f3211e3a4e43fee5a21ad9f87ca153b300fc78b1c557a2057dbe9c63bcb4760405160405180910390a2565b600061049160405180602001604052806000815250610686565b509050806105005747600480549050600560149054906101000a900460ff1660018111156104c2576104c16115f9565b5b6040517f584327aa0000000000000000000000000000000000000000000000000000000081526004016104f793929190611628565b60405180910390fd5b6001600560146101000a81548160ff02191690836001811115610526576105256115f9565b5b0217905550600260009054906101000a900473ffffffffffffffffffffffffffffffffffffffff1673ffffffffffffffffffffffffffffffffffffffff16639b1c385e6040518060c001604052807f000000000000000000000000000000000000000000000000000000000000000081526020017f00000000000000000000000000000000000000000000000000000000000000008152602001600361ffff1681526020017f000000000000000000000000000000000000000000000000000000000000000063ffffffff168152602001600163ffffffff16815260200161061e604051806020016040528060001515815250610d76565b8152506040518263ffffffff1660e01b815260040161063d9190611796565b6020604051808303816000875af115801561065c573d6000803e3d6000fd5b505050506040513d601f19601f8201168201806040525081019061068091906117cd565b50505050565b6000606060007f0000000000000000000000000000000000000000000000000000000000000000600354426106bb9190611829565b1015905060008060018111156106d4576106d36115f9565b5b600560149054906101000a900460ff1660018111156106f6576106f56115f9565b5b149050600080471190506000806004805490501190508380156107165750825b801561071f5750815b80156107285750805b955085604051806020016040528060008152509550955050505050915091565b600160009054906101000a900473ffffffffffffffffffffffffffffffffffffffff1673ffffffffffffffffffffffffffffffffffffffff163373ffffffffffffffffffffffffffffffffffffffff16146107d8576040517f08c379a00000000000000000000000000000000000000000000000000000000081526004016107cf906118ba565b60405180910390fd5b60008060009054906101000a900473ffffffffffffffffffffffffffffffffffffffff169050336000806101000a81548173ffffffffffffffffffffffffffffffffffffffff021916908373ffffffffffffffffffffffffffffffffffffffff1602179055506000600160006101000a81548173ffffffffffffffffffffffffffffffffffffffff021916908373ffffffffffffffffffffffffffffffffffffffff1602179055503373ffffffffffffffffffffffffffffffffffffffff168173ffffffffffffffffffffffffffffffffffffffff167f8be0079c531659141344cd1fd0a4f28419497f9722a3daafe3b4186f6b6457e060405160405180910390a350565b60008060009054906101000a900473ffffffffffffffffffffffffffffffffffffffff16905090565b61090e6108dd565b73ffffffffffffffffffffffffffffffffffffffff163373ffffffffffffffffffffffffffffffffffffffff16141580156109975750600260009054906101000a900473ffffffffffffffffffffffffffffffffffffffff1673ffffffffffffffffffffffffffffffffffffffff163373ffffffffffffffffffffffffffffffffffffffff1614155b15610a0657336109a56108dd565b600260009054906101000a900473ffffffffffffffffffffffffffffffffffffffff166040517f061db9c10000000000000000000000000000000000000000000000000000000081526004016109fd939291906118da565b60405180910390fd5b600073ffffffffffffffffffffffffffffffffffffffff168173ffffffffffffffffffffffffffffffffffffffff1603610a6c576040517fd92e233d00000000000000000000000000000000000000000000000000000000815260040160405180910390fd5b80600260006101000a81548173ffffffffffffffffffffffffffffffffffffffff021916908373ffffffffffffffffffffffffffffffffffffffff1602179055507fd1a6a14209a385a964d036e404cb5cfb71f4000cdb03c9366292430787261be681604051610adc91906114e2565b60405180910390a150565b600260009054906101000a900473ffffffffffffffffffffffffffffffffffffffff1681565b610b15610e0e565b610b1e81610e9e565b50565b600060048054905083836000818110610b3d57610b3c611911565b5b90506020020135610b4e919061196f565b9050600060048281548110610b6657610b65611911565b5b9060005260206000200160009054906101000a900473ffffffffffffffffffffffffffffffffffffffff16905080600560006101000a81548173ffffffffffffffffffffffffffffffffffffffff021916908373ffffffffffffffffffffffffffffffffffffffff1602179055506000600560146101000a81548160ff02191690836001811115610bfa57610bf96115f9565b5b0217905550600067ffffffffffffffff811115610c1a57610c19611263565b5b604051908082528060200260200182016040528015610c485781602001602082028036833780820191505090505b5060049080519060200190610c5e929190610fca565b5042600381905550600560009054906101000a900473ffffffffffffffffffffffffffffffffffffffff1673ffffffffffffffffffffffffffffffffffffffff167f5b690ec4a06fe979403046eaeea5b3ce38524683c3001f662c8b5a829632f7df60405160405180910390a260008173ffffffffffffffffffffffffffffffffffffffff1647604051610cf1906119d1565b60006040518083038185875af1925050503d8060008114610d2e576040519150601f19603f3d011682016040523d82523d6000602084013e610d33565b606091505b5050905080610d6e576040517fa1d04b3900000000000000000000000000000000000000000000000000000000815260040160405180910390fd5b505050505050565b60607f92fd13387c7fe7befbc38d303d6468778fb9731bc4583f17d92989c6fcfdeaaa82604051602401610daa9190611a11565b604051602081830303815290604052907bffffffffffffffffffffffffffffffffffffffffffffffffffffffff19166020820180517bffffffffffffffffffffffffffffffffffffffffffffffffffffffff83818316178352505050509050919050565b60008054906101000a900473ffffffffffffffffffffffffffffffffffffffff1673ffffffffffffffffffffffffffffffffffffffff163373ffffffffffffffffffffffffffffffffffffffff1614610e9c576040517f08c379a0000000000000000000000000000000000000000000000000000000008152600401610e9390611a78565b60405180910390fd5b565b3373ffffffffffffffffffffffffffffffffffffffff168173ffffffffffffffffffffffffffffffffffffffff1603610f0c576040517f08c379a0000000000000000000000000000000000000000000000000000000008152600401610f0390611ae4565b60405180910390fd5b80600160006101000a81548173ffffffffffffffffffffffffffffffffffffffff021916908373ffffffffffffffffffffffffffffffffffffffff1602179055508073ffffffffffffffffffffffffffffffffffffffff1660008054906101000a900473ffffffffffffffffffffffffffffffffffffffff1673ffffffffffffffffffffffffffffffffffffffff167fed8889f560326eb138920d842192f0eb3dd22b4f139c87a2c57538e05bae127860405160405180910390a350565b828054828255906000526020600020908101928215611043579160200282015b828111156110425782518260006101000a81548173ffffffffffffffffffffffffffffffffffffffff021916908373ffffffffffffffffffffffffffffffffffffffff16021790555091602001919060010190610fea565b5b5090506110509190611054565b5090565b5b8082111561106d576000816000905550600101611055565b5090565b6000819050919050565b61108481611071565b82525050565b600060208201905061109f600083018461107b565b92915050565b6000604051905090565b600080fd5b600080fd5b6110c281611071565b81146110cd57600080fd5b50565b6000813590506110df816110b9565b92915050565b600080fd5b600080fd5b600080fd5b60008083601f84011261110a576111096110e5565b5b8235905067ffffffffffffffff811115611127576111266110ea565b5b602083019150836020820283011115611143576111426110ef565b5b9250929050565b600080600060408486031215611163576111626110af565b5b6000611171868287016110d0565b935050602084013567ffffffffffffffff811115611192576111916110b4565b5b61119e868287016110f4565b92509250509250925092565b60008083601f8401126111c0576111bf6110e5565b5b8235905067ffffffffffffffff8111156111dd576111dc6110ea565b5b6020830191508360018202830111156111f9576111f86110ef565b5b9250929050565b60008060208385031215611217576112166110af565b5b600083013567ffffffffffffffff811115611235576112346110b4565b5b611241858286016111aa565b92509250509250929050565b600080fd5b6000601f19601f8301169050919050565b7f4e487b7100000000000000000000000000000000000000000000000000000000600052604160045260246000fd5b61129b82611252565b810181811067ffffffffffffffff821117156112ba576112b9611263565b5b80604052505050565b60006112cd6110a5565b90506112d98282611292565b919050565b600067ffffffffffffffff8211156112f9576112f8611263565b5b61130282611252565b9050602081019050919050565b82818337600083830152505050565b600061133161132c846112de565b6112c3565b90508281526020810184848401111561134d5761134c61124d565b5b61135884828561130f565b509392505050565b600082601f830112611375576113746110e5565b5b813561138584826020860161131e565b91505092915050565b6000602082840312156113a4576113a36110af565b5b600082013567ffffffffffffffff8111156113c2576113c16110b4565b5b6113ce84828501611360565b91505092915050565b60008115159050919050565b6113ec816113d7565b82525050565b600081519050919050565b600082825260208201905092915050565b60005b8381101561142c578082015181840152602081019050611411565b60008484015250505050565b6000611443826113f2565b61144d81856113fd565b935061145d81856020860161140e565b61146681611252565b840191505092915050565b600060408201905061148660008301856113e3565b81810360208301526114988184611438565b90509392505050565b600073ffffffffffffffffffffffffffffffffffffffff82169050919050565b60006114cc826114a1565b9050919050565b6114dc816114c1565b82525050565b60006020820190506114f760008301846114d3565b92915050565b611506816114c1565b811461151157600080fd5b50565b600081359050611523816114fd565b92915050565b60006020828403121561153f5761153e6110af565b5b600061154d84828501611514565b91505092915050565b6000819050919050565b600061157b611576611571846114a1565b611556565b6114a1565b9050919050565b600061158d82611560565b9050919050565b600061159f82611582565b9050919050565b6115af81611594565b82525050565b60006020820190506115ca60008301846115a6565b92915050565b60006040820190506115e560008301856114d3565b6115f260208301846114d3565b9392505050565b7f4e487b7100000000000000000000000000000000000000000000000000000000600052602160045260246000fd5b600060608201905061163d600083018661107b565b61164a602083018561107b565b611657604083018461107b565b949350505050565b6000819050919050565b6116728161165f565b82525050565b61168181611071565b82525050565b600061ffff82169050919050565b61169e81611687565b82525050565b600063ffffffff82169050919050565b6116bd816116a4565b82525050565b600082825260208201905092915050565b60006116df826113f2565b6116e981856116c3565b93506116f981856020860161140e565b61170281611252565b840191505092915050565b600060c0830160008301516117256000860182611669565b5060208301516117386020860182611678565b50604083015161174b6040860182611695565b50606083015161175e60608601826116b4565b50608083015161177160808601826116b4565b5060a083015184820360a086015261178982826116d4565b9150508091505092915050565b600060208201905081810360008301526117b0818461170d565b905092915050565b6000815190506117c7816110b9565b92915050565b6000602082840312156117e3576117e26110af565b5b60006117f1848285016117b8565b91505092915050565b7f4e487b7100000000000000000000000000000000000000000000000000000000600052601160045260246000fd5b600061183482611071565b915061183f83611071565b9250828203905081811115611857576118566117fa565b5b92915050565b600082825260208201905092915050565b7f4d7573742062652070726f706f736564206f776e657200000000000000000000600082015250565b60006118a460168361185d565b91506118af8261186e565b602082019050919050565b600060208201905081810360008301526118d381611897565b9050919050565b60006060820190506118ef60008301866114d3565b6118fc60208301856114d3565b61190960408301846114d3565b949350505050565b7f4e487b7100000000000000000000000000000000000000000000000000000000600052603260045260246000fd5b7f4e487b7100000000000000000000000000000000000000000000000000000000600052601260045260246000fd5b600061197a82611071565b915061198583611071565b92508261199557611994611940565b5b828206905092915050565b600081905092915050565b50565b60006119bb6000836119a0565b91506119c6826119ab565b600082019050919050565b60006119dc826119ae565b9150819050919050565b6119ef816113d7565b82525050565b602082016000820151611a0b60008501826119e6565b50505050565b6000602082019050611a2660008301846119f5565b92915050565b7f4f6e6c792063616c6c61626c65206279206f776e657200000000000000000000600082015250565b6000611a6260168361185d565b9150611a6d82611a2c565b602082019050919050565b60006020820190508181036000830152611a9181611a55565b9050919050565b7f43616e6e6f74207472616e7366657220746f2073656c66000000000000000000600082015250565b6000611ace60178361185d565b9150611ad982611a98565b602082019050919050565b60006020820190508181036000830152611afd81611ac1565b905091905056fea2646970667358221220fe39203f1aca88dba831df57f3c1071834ff8113d6de68d92f623ba20e86c4d464736f6c63430008130033","linkReferences":{}},"methodIdentifiers":{"acceptOwnership()":"79ba5097","checkUpkeep(bytes)":"6e04ff0d","enterRaffle()":"2cfcc539","getEntranceFee()":"09bc33a7","owner()":"8da5cb5b","performUpkeep(bytes)":"4585e33b","rawFulfillRandomWords(uint256,uint256[])":"1fe543e3","s_vrfCoordinator()":"9eccacf6","setCoordinator(address)":"8ea98117","transferOwnership(address)":"f2fde38b"},"id":8}