{"abi":[{"type":"constructor","inputs":[{"name":"_entranceFee","type":"uint256","internalType":"uint256"},{"name":"_interval","type":"uint256","internalType":"uint256"},{"name":"_vrfCoordinator","type":"address","internalType":"address"}],"stateMutability":"nonpayable"},{"type":"function","name":"acceptOwnership","inputs":[],"outputs":[],"stateMutability":"nonpayable"},{"type":"function","name":"enterRaffle","inputs":[],"outputs":[],"stateMutability":"payable"},{"type":"function","name":"getEntranceFee","inputs":[],"outputs":[{"name":"","type":"uint256","internalType":"uint256"}],"stateMutability":"view"},{"type":"function","name":"owner","inputs":[],"outputs":[{"name":"","type":"address","internalType":"address"}],"stateMutability":"view"},{"type":"function","name":"pickWinner","inputs":[],"outputs":[],"stateMutability":"nonpayable"},{"type":"function","name":"rawFulfillRandomWords","inputs":[{"name":"requestId","type":"uint256","internalType":"uint256"},{"name":"randomWords","type":"uint256[]","internalType":"uint256[]"}],"outputs":[],"stateMutability":"nonpayable"},{"type":"function","name":"s_vrfCoordinator","inputs":[],"outputs":[{"name":"","type":"address","internalType":"contract IVRFCoordinatorV2Plus"}],"stateMutability":"view"},{"type":"function","name":"setCoordinator","inputs":[{"name":"_vrfCoordinator","type":"address","internalType":"address"}],"outputs":[],"stateMutability":"nonpayable"},{"type":"function","name":"transferOwnership","inputs":[{"name":"to","type":"address","internalType":"address"}],"outputs":[],"stateMutability":"nonpayable"},{"type":"event","name":"CoordinatorSet","inputs":[{"name":"vrfCoordinator","type":"address","indexed":false,"internalType":"address"}],"anonymous":false},{"type":"event","name":"OwnershipTransferRequested","inputs":[{"name":"from","type":"address","indexed":true,"internalType":"address"},{"name":"to","type":"address","indexed":true,"internalType":"address"}],"anonymous":false},{"type":"event","name":"OwnershipTransferred","inputs":[{"name":"from","type":"address","indexed":true,"internalType":"address"},{"name":"to","type":"address","indexed":true,"internalType":"address"}],"anonymous":false},{"type":"event","name":"RaffleEntered","inputs":[{"name":"_player","type":"address","indexed":true,"internalType":"address"}],"anonymous":false},{"type":"error","name":"OnlyCoordinatorCanFulfill","inputs":[{"name":"have","type":"address","internalType":"address"},{"name":"want","type":"address","internalType":"address"}]},{"type":"error","name":"OnlyOwnerOrCoordinator","inputs":[{"name":"have","type":"address","internalType":"address"},{"name":"owner","type":"address","internalType":"address"},{"name":"coordinator","type":"address","internalType":"address"}]},{"type":"error","name":"Raffle__NotEnoughEthToEnterRaffle","inputs":[]},{"type":"error","name":"ZeroAddress","inputs":[]}],"bytecode":{"object":"0x60c06040523480156200001157600080fd5b5060405162001383380380620013838339818101604052810190620000379190620003d4565b80338060008073ffffffffffffffffffffffffffffffffffffffff168273ffffffffffffffffffffffffffffffffffffffff1603620000ad576040517f08c379a0000000000000000000000000000000000000000000000000000000008152600401620000a49062000491565b60405180910390fd5b816000806101000a81548173ffffffffffffffffffffffffffffffffffffffff021916908373ffffffffffffffffffffffffffffffffffffffff160217905550600073ffffffffffffffffffffffffffffffffffffffff168173ffffffffffffffffffffffffffffffffffffffff1614620001345762000133816200020060201b60201c565b5b505050600073ffffffffffffffffffffffffffffffffffffffff168173ffffffffffffffffffffffffffffffffffffffff16036200019e576040517fd92e233d00000000000000000000000000000000000000000000000000000000815260040160405180910390fd5b80600260006101000a81548173ffffffffffffffffffffffffffffffffffffffff021916908373ffffffffffffffffffffffffffffffffffffffff1602179055505082608081815250508160a081815250504260038190555050505062000525565b3373ffffffffffffffffffffffffffffffffffffffff168173ffffffffffffffffffffffffffffffffffffffff160362000271576040517f08c379a0000000000000000000000000000000000000000000000000000000008152600401620002689062000503565b60405180910390fd5b80600160006101000a81548173ffffffffffffffffffffffffffffffffffffffff021916908373ffffffffffffffffffffffffffffffffffffffff1602179055508073ffffffffffffffffffffffffffffffffffffffff1660008054906101000a900473ffffffffffffffffffffffffffffffffffffffff1673ffffffffffffffffffffffffffffffffffffffff167fed8889f560326eb138920d842192f0eb3dd22b4f139c87a2c57538e05bae127860405160405180910390a350565b600080fd5b6000819050919050565b620003498162000334565b81146200035557600080fd5b50565b60008151905062000369816200033e565b92915050565b600073ffffffffffffffffffffffffffffffffffffffff82169050919050565b60006200039c826200036f565b9050919050565b620003ae816200038f565b8114620003ba57600080fd5b50565b600081519050620003ce81620003a3565b92915050565b600080600060608486031215620003f057620003ef6200032f565b5b6000620004008682870162000358565b9350506020620004138682870162000358565b92505060406200042686828701620003bd565b9150509250925092565b600082825260208201905092915050565b7f43616e6e6f7420736574206f776e657220746f207a65726f0000000000000000600082015250565b60006200047960188362000430565b9150620004868262000441565b602082019050919050565b60006020820190508181036000830152620004ac816200046a565b9050919050565b7f43616e6e6f74207472616e7366657220746f2073656c66000000000000000000600082015250565b6000620004eb60178362000430565b9150620004f882620004b3565b602082019050919050565b600060208201905081810360008301526200051e81620004dc565b9050919050565b60805160a051610e316200055260003960006103b10152600081816101c301526102af0152610e316000f3fe6080604052600436106100865760003560e01c806379ba50971161005957806379ba5097146101005780638da5cb5b146101175780638ea98117146101425780639eccacf61461016b578063f2fde38b1461019657610086565b806309bc33a71461008b5780631fe543e3146100b65780632cfcc539146100df5780635d495aea146100e9575b600080fd5b34801561009757600080fd5b506100a06101bf565b6040516100ad919061099e565b60405180910390f35b3480156100c257600080fd5b506100dd60048036038101906100d89190610a54565b6101e7565b005b6100e76102ad565b005b3480156100f557600080fd5b506100fe6103af565b005b34801561010c57600080fd5b506101156103eb565b005b34801561012357600080fd5b5061012c610580565b6040516101399190610af5565b60405180910390f35b34801561014e57600080fd5b5061016960048036038101906101649190610b3c565b6105a9565b005b34801561017757600080fd5b5061018061078a565b60405161018d9190610bc8565b60405180910390f35b3480156101a257600080fd5b506101bd60048036038101906101b89190610b3c565b6107b0565b005b60007f0000000000000000000000000000000000000000000000000000000000000000905090565b600260009054906101000a900473ffffffffffffffffffffffffffffffffffffffff1673ffffffffffffffffffffffffffffffffffffffff163373ffffffffffffffffffffffffffffffffffffffff161461029d5733600260009054906101000a900473ffffffffffffffffffffffffffffffffffffffff166040517f1cf993f4000000000000000000000000000000000000000000000000000000008152600401610294929190610be3565b60405180910390fd5b6102a88383836107c4565b505050565b7f0000000000000000000000000000000000000000000000000000000000000000341015610307576040517f7d0d29ca00000000000000000000000000000000000000000000000000000000815260040160405180910390fd5b6004339080600181540180825580915050600190039060005260206000200160009091909190916101000a81548173ffffffffffffffffffffffffffffffffffffffff021916908373ffffffffffffffffffffffffffffffffffffffff1602179055503373ffffffffffffffffffffffffffffffffffffffff167f634f3211e3a4e43fee5a21ad9f87ca153b300fc78b1c557a2057dbe9c63bcb4760405160405180910390a2565b7f0000000000000000000000000000000000000000000000000000000000000000600354426103de9190610c3b565b10156103e957600080fd5b565b600160009054906101000a900473ffffffffffffffffffffffffffffffffffffffff1673ffffffffffffffffffffffffffffffffffffffff163373ffffffffffffffffffffffffffffffffffffffff161461047b576040517f08c379a000000000000000000000000000000000000000000000000000000000815260040161047290610ccc565b60405180910390fd5b60008060009054906101000a900473ffffffffffffffffffffffffffffffffffffffff169050336000806101000a81548173ffffffffffffffffffffffffffffffffffffffff021916908373ffffffffffffffffffffffffffffffffffffffff1602179055506000600160006101000a81548173ffffffffffffffffffffffffffffffffffffffff021916908373ffffffffffffffffffffffffffffffffffffffff1602179055503373ffffffffffffffffffffffffffffffffffffffff168173ffffffffffffffffffffffffffffffffffffffff167f8be0079c531659141344cd1fd0a4f28419497f9722a3daafe3b4186f6b6457e060405160405180910390a350565b60008060009054906101000a900473ffffffffffffffffffffffffffffffffffffffff16905090565b6105b1610580565b73ffffffffffffffffffffffffffffffffffffffff163373ffffffffffffffffffffffffffffffffffffffff161415801561063a5750600260009054906101000a900473ffffffffffffffffffffffffffffffffffffffff1673ffffffffffffffffffffffffffffffffffffffff163373ffffffffffffffffffffffffffffffffffffffff1614155b156106a95733610648610580565b600260009054906101000a900473ffffffffffffffffffffffffffffffffffffffff166040517f061db9c10000000000000000000000000000000000000000000000000000000081526004016106a093929190610cec565b60405180910390fd5b600073ffffffffffffffffffffffffffffffffffffffff168173ffffffffffffffffffffffffffffffffffffffff160361070f576040517fd92e233d00000000000000000000000000000000000000000000000000000000815260040160405180910390fd5b80600260006101000a81548173ffffffffffffffffffffffffffffffffffffffff021916908373ffffffffffffffffffffffffffffffffffffffff1602179055507fd1a6a14209a385a964d036e404cb5cfb71f4000cdb03c9366292430787261be68160405161077f9190610af5565b60405180910390a150565b600260009054906101000a900473ffffffffffffffffffffffffffffffffffffffff1681565b6107b86107c9565b6107c181610859565b50565b505050565b60008054906101000a900473ffffffffffffffffffffffffffffffffffffffff1673ffffffffffffffffffffffffffffffffffffffff163373ffffffffffffffffffffffffffffffffffffffff1614610857576040517f08c379a000000000000000000000000000000000000000000000000000000000815260040161084e90610d6f565b60405180910390fd5b565b3373ffffffffffffffffffffffffffffffffffffffff168173ffffffffffffffffffffffffffffffffffffffff16036108c7576040517f08c379a00000000000000000000000000000000000000000000000000000000081526004016108be90610ddb565b60405180910390fd5b80600160006101000a81548173ffffffffffffffffffffffffffffffffffffffff021916908373ffffffffffffffffffffffffffffffffffffffff1602179055508073ffffffffffffffffffffffffffffffffffffffff1660008054906101000a900473ffffffffffffffffffffffffffffffffffffffff1673ffffffffffffffffffffffffffffffffffffffff167fed8889f560326eb138920d842192f0eb3dd22b4f139c87a2c57538e05bae127860405160405180910390a350565b6000819050919050565b61099881610985565b82525050565b60006020820190506109b3600083018461098f565b92915050565b600080fd5b600080fd5b6109cc81610985565b81146109d757600080fd5b50565b6000813590506109e9816109c3565b92915050565b600080fd5b600080fd5b600080fd5b60008083601f840112610a1457610a136109ef565b5b8235905067ffffffffffffffff811115610a3157610a306109f4565b5b602083019150836020820283011115610a4d57610a4c6109f9565b5b9250929050565b600080600060408486031215610a6d57610a6c6109b9565b5b6000610a7b868287016109da565b935050602084013567ffffffffffffffff811115610a9c57610a9b6109be565b5b610aa8868287016109fe565b92509250509250925092565b600073ffffffffffffffffffffffffffffffffffffffff82169050919050565b6000610adf82610ab4565b9050919050565b610aef81610ad4565b82525050565b6000602082019050610b0a6000830184610ae6565b92915050565b610b1981610ad4565b8114610b2457600080fd5b50565b600081359050610b3681610b10565b92915050565b600060208284031215610b5257610b516109b9565b5b6000610b6084828501610b27565b91505092915050565b6000819050919050565b6000610b8e610b89610b8484610ab4565b610b69565b610ab4565b9050919050565b6000610ba082610b73565b9050919050565b6000610bb282610b95565b9050919050565b610bc281610ba7565b82525050565b6000602082019050610bdd6000830184610bb9565b92915050565b6000604082019050610bf86000830185610ae6565b610c056020830184610ae6565b9392505050565b7f4e487b7100000000000000000000000000000000000000000000000000000000600052601160045260246000fd5b6000610c4682610985565b9150610c5183610985565b9250828203905081811115610c6957610c68610c0c565b5b92915050565b600082825260208201905092915050565b7f4d7573742062652070726f706f736564206f776e657200000000000000000000600082015250565b6000610cb6601683610c6f565b9150610cc182610c80565b602082019050919050565b60006020820190508181036000830152610ce581610ca9565b9050919050565b6000606082019050610d016000830186610ae6565b610d0e6020830185610ae6565b610d1b6040830184610ae6565b949350505050565b7f4f6e6c792063616c6c61626c65206279206f776e657200000000000000000000600082015250565b6000610d59601683610c6f565b9150610d6482610d23565b602082019050919050565b60006020820190508181036000830152610d8881610d4c565b9050919050565b7f43616e6e6f74207472616e7366657220746f2073656c66000000000000000000600082015250565b6000610dc5601783610c6f565b9150610dd082610d8f565b602082019050919050565b60006020820190508181036000830152610df481610db8565b905091905056fea2646970667358221220af1a2f39f1f3bbfc34d5488b5914d2ce4d49b9ed447a7eb2cd4933842b4d859464736f6c63430008130033","linkReferences":{}},"methodIdentifiers":{"acceptOwnership()":"79ba5097","enterRaffle()":"2cfcc539","getEntranceFee()":"09bc33a7","owner()":"8da5cb5b","pickWinner()":"5d495aea","rawFulfillRandomWords(uint256,uint256[])":"1fe543e3","s_vrfCoordinator()":"9eccacf6","setCoordinator(address)":"8ea98117","transferOwnership(address)":"f2fde38b"},"id":8}